{
  "_format": "hh-sol-artifact-1",
  "contractName": "SupplyChainManagement",
  "sourceName": "contracts/SupplyChainManagement.sol",
  "abi": [
    {
      "anonymous": false,
      "inputs": [
        {
          "indexed": false,
          "internalType": "uint256",
          "name": "_containerIndex",
          "type": "uint256"
        },
        {
          "indexed": false,
          "internalType": "uint256",
          "name": "_deliveryState",
          "type": "uint256"
        }
      ],
      "name": "DeliveryStateChanged",
      "type": "event"
    },
    {
      "anonymous": false,
      "inputs": [
        {
          "indexed": false,
          "internalType": "uint256",
          "name": "_containerIndex",
          "type": "uint256"
        },
        {
          "indexed": false,
          "internalType": "uint256",
          "name": "_violationState",
          "type": "uint256"
        }
      ],
      "name": "ViolationStateChanged",
      "type": "event"
    },
    {
      "inputs": [
        {
          "internalType": "uint256",
          "name": "",
          "type": "uint256"
        }
      ],
      "name": "containers",
      "outputs": [
        {
          "internalType": "string",
          "name": "_productName",
          "type": "string"
        },
        {
          "internalType": "uint256",
          "name": "_price",
          "type": "uint256"
        },
        {
          "internalType": "uint256",
          "name": "_quantity",
          "type": "uint256"
        },
        {
          "internalType": "address",
          "name": "_customerAddress",
          "type": "address"
        },
        {
          "internalType": "enum SupplyChainManagement.DeliveryState",
          "name": "_deliveryState",
          "type": "uint8"
        },
        {
          "internalType": "enum SupplyChainManagement.ViolationState",
          "name": "_violationState",
          "type": "uint8"
        }
      ],
      "stateMutability": "view",
      "type": "function"
    },
    {
      "inputs": [],
      "name": "containersIndex",
      "outputs": [
        {
          "internalType": "uint256",
          "name": "",
          "type": "uint256"
        }
      ],
      "stateMutability": "view",
      "type": "function"
    },
    {
      "inputs": [
        {
          "internalType": "string",
          "name": "_productName",
          "type": "string"
        },
        {
          "internalType": "uint256",
          "name": "_price",
          "type": "uint256"
        },
        {
          "internalType": "uint256",
          "name": "_quantity",
          "type": "uint256"
        },
        {
          "internalType": "address",
          "name": "_customerAddress",
          "type": "address"
        }
      ],
      "name": "createContainer",
      "outputs": [],
      "stateMutability": "nonpayable",
      "type": "function"
    },
    {
      "inputs": [],
      "name": "getBalance",
      "outputs": [
        {
          "internalType": "uint256",
          "name": "",
          "type": "uint256"
        }
      ],
      "stateMutability": "view",
      "type": "function"
    },
    {
      "inputs": [],
      "name": "isOwner",
      "outputs": [
        {
          "internalType": "bool",
          "name": "",
          "type": "bool"
        }
      ],
      "stateMutability": "view",
      "type": "function"
    },
    {
      "inputs": [
        {
          "internalType": "uint256",
          "name": "_containerId",
          "type": "uint256"
        }
      ],
      "name": "triggerArrival",
      "outputs": [],
      "stateMutability": "nonpayable",
      "type": "function"
    },
    {
      "inputs": [
        {
          "internalType": "uint256",
          "name": "_containerId",
          "type": "uint256"
        }
      ],
      "name": "triggerDelivery",
      "outputs": [],
      "stateMutability": "nonpayable",
      "type": "function"
    },
    {
      "inputs": [
        {
          "internalType": "uint256",
          "name": "_containerId",
          "type": "uint256"
        }
      ],
      "name": "triggerEvaluation",
      "outputs": [],
      "stateMutability": "nonpayable",
      "type": "function"
    },
    {
      "inputs": [
        {
          "internalType": "uint256",
          "name": "_containerId",
          "type": "uint256"
        }
      ],
      "name": "triggerNegotiation",
      "outputs": [],
      "stateMutability": "nonpayable",
      "type": "function"
    },
    {
      "inputs": [
        {
          "internalType": "uint256",
          "name": "_containerId",
          "type": "uint256"
        }
      ],
      "name": "triggerPayment",
      "outputs": [],
      "stateMutability": "payable",
      "type": "function"
    },
    {
      "inputs": [
        {
          "internalType": "uint256",
          "name": "_containerId",
          "type": "uint256"
        }
      ],
      "name": "triggerViolation",
      "outputs": [],
      "stateMutability": "nonpayable",
      "type": "function"
    },
    {
      "inputs": [],
      "name": "withdraw",
      "outputs": [],
      "stateMutability": "nonpayable",
      "type": "function"
    }
  ],
  "bytecode": "0x608060405234801561001057600080fd5b50336000806101000a81548173ffffffffffffffffffffffffffffffffffffffff021916908373ffffffffffffffffffffffffffffffffffffffff160217905550611ff9806100606000396000f3fe6080604052600436106100a75760003560e01c8063800fb83f11610064578063800fb83f1461019457806383e76478146101b05780638f32d59b146101d9578063a67480f514610204578063b49a75091461022d578063cd31831e1461026f576100a7565b806301f8830e146100ac57806312065fe0146100d5578063329bc015146101005780633ccfd60b1461012957806349000d2714610140578063616acd351461016b575b600080fd5b3480156100b857600080fd5b506100d360048036038101906100ce9190611378565b610298565b005b3480156100e157600080fd5b506100ea610559565b6040516100f791906113b4565b60405180910390f35b34801561010c57600080fd5b5061012760048036038101906101229190611378565b6105a8565b005b34801561013557600080fd5b5061013e610728565b005b34801561014c57600080fd5b506101556107df565b60405161016291906113b4565b60405180910390f35b34801561017757600080fd5b50610192600480360381019061018d9190611378565b6107e5565b005b6101ae60048036038101906101a99190611378565b6109c3565b005b3480156101bc57600080fd5b506101d760048036038101906101d29190611573565b610bf9565b005b3480156101e557600080fd5b506101ee610e7b565b6040516101fb9190611611565b60405180910390f35b34801561021057600080fd5b5061022b60048036038101906102269190611378565b610ed2565b005b34801561023957600080fd5b50610254600480360381019061024f9190611378565b6110b0565b60405161026696959493929190611779565b60405180910390f35b34801561027b57600080fd5b5061029660048036038101906102919190611378565b6111ae565b005b600260068111156102ac576102ab6116ba565b5b6001600083815260200190815260200160002060030160149054906101000a900460ff1660068111156102e2576102e16116ba565b5b14610322576040517f08c379a000000000000000000000000000000000000000000000000000000000815260040161031990611853565b60405180910390fd5b3373ffffffffffffffffffffffffffffffffffffffff166001600083815260200190815260200160002060030160009054906101000a900473ffffffffffffffffffffffffffffffffffffffff1673ffffffffffffffffffffffffffffffffffffffff16146103c6576040517f08c379a00000000000000000000000000000000000000000000000000000000081526004016103bd906118bf565b60405180910390fd5b6001808111156103d9576103d86116ba565b5b6001600083815260200190815260200160002060030160159054906101000a900460ff16600181111561040f5761040e6116ba565b5b036104585760046001600083815260200190815260200160002060030160146101000a81548160ff0219169083600681111561044e5761044d6116ba565b5b02179055506104e8565b6000600181111561046c5761046b6116ba565b5b6001600083815260200190815260200160002060030160159054906101000a900460ff1660018111156104a2576104a16116ba565b5b036104e75760036001600083815260200190815260200160002060030160146101000a81548160ff021916908360068111156104e1576104e06116ba565b5b02179055505b5b7f520c657c7cd4b2f463777288d69693f23b30c6edcf209b5a26a68b359bfb824c816001600084815260200190815260200160002060030160149054906101000a900460ff1660068111156105405761053f6116ba565b5b60405161054e9291906118df565b60405180910390a150565b6000610563610e7b565b6105a2576040517f08c379a000000000000000000000000000000000000000000000000000000000815260040161059990611954565b60405180910390fd5b47905090565b6105b0610e7b565b6105ef576040517f08c379a00000000000000000000000000000000000000000000000000000000081526004016105e690611954565b60405180910390fd5b60016006811115610603576106026116ba565b5b6001600083815260200190815260200160002060030160149054906101000a900460ff166006811115610639576106386116ba565b5b14610679576040517f08c379a0000000000000000000000000000000000000000000000000000000008152600401610670906119e6565b60405180910390fd5b600180600083815260200190815260200160002060030160156101000a81548160ff021916908360018111156106b2576106b16116ba565b5b02179055507fcbb9722bf33764f0dc9e44f255f9d98d2d3b1a464f9cd640c964e425861d4577816001600084815260200190815260200160002060030160159054906101000a900460ff16600181111561070f5761070e6116ba565b5b60405161071d9291906118df565b60405180910390a150565b610730610e7b565b61076f576040517f08c379a000000000000000000000000000000000000000000000000000000000815260040161076690611954565b60405180910390fd5b60008054906101000a900473ffffffffffffffffffffffffffffffffffffffff1673ffffffffffffffffffffffffffffffffffffffff166108fc6107b1610559565b9081150290604051600060405180830381858888f193505050501580156107dc573d6000803e3d6000fd5b50565b60025481565b600460068111156107f9576107f86116ba565b5b6001600083815260200190815260200160002060030160149054906101000a900460ff16600681111561082f5761082e6116ba565b5b1461086f576040517f08c379a000000000000000000000000000000000000000000000000000000000815260040161086690611a78565b60405180910390fd5b3373ffffffffffffffffffffffffffffffffffffffff166001600083815260200190815260200160002060030160009054906101000a900473ffffffffffffffffffffffffffffffffffffffff1673ffffffffffffffffffffffffffffffffffffffff1614610913576040517f08c379a000000000000000000000000000000000000000000000000000000000815260040161090a906118bf565b60405180910390fd5b60066001600083815260200190815260200160002060030160146101000a81548160ff0219169083600681111561094d5761094c6116ba565b5b02179055507f520c657c7cd4b2f463777288d69693f23b30c6edcf209b5a26a68b359bfb824c816001600084815260200190815260200160002060030160149054906101000a900460ff1660068111156109aa576109a96116ba565b5b6040516109b89291906118df565b60405180910390a150565b600360068111156109d7576109d66116ba565b5b6001600083815260200190815260200160002060030160149054906101000a900460ff166006811115610a0d57610a0c6116ba565b5b14610a4d576040517f08c379a0000000000000000000000000000000000000000000000000000000008152600401610a4490611ae4565b60405180910390fd5b3373ffffffffffffffffffffffffffffffffffffffff166001600083815260200190815260200160002060030160009054906101000a900473ffffffffffffffffffffffffffffffffffffffff1673ffffffffffffffffffffffffffffffffffffffff1614610af1576040517f08c379a0000000000000000000000000000000000000000000000000000000008152600401610ae8906118bf565b60405180910390fd5b34600160008381526020019081526020016000206001015414610b49576040517f08c379a0000000000000000000000000000000000000000000000000000000008152600401610b4090611b50565b60405180910390fd5b60056001600083815260200190815260200160002060030160146101000a81548160ff02191690836006811115610b8357610b826116ba565b5b02179055507f520c657c7cd4b2f463777288d69693f23b30c6edcf209b5a26a68b359bfb824c816001600084815260200190815260200160002060030160149054906101000a900460ff166006811115610be057610bdf6116ba565b5b604051610bee9291906118df565b60405180910390a150565b610c01610e7b565b610c40576040517f08c379a0000000000000000000000000000000000000000000000000000000008152600401610c3790611954565b60405180910390fd5b836001600060025481526020019081526020016000206000019081610c659190611d7c565b50826001600060025481526020019081526020016000206001018190555081600160006002548152602001908152602001600020600201819055508060016000600254815260200190815260200160002060030160006101000a81548173ffffffffffffffffffffffffffffffffffffffff021916908373ffffffffffffffffffffffffffffffffffffffff160217905550600060016000600254815260200190815260200160002060030160146101000a81548160ff02191690836006811115610d3357610d326116ba565b5b0217905550600060016000600254815260200190815260200160002060030160156101000a81548160ff02191690836001811115610d7457610d736116ba565b5b02179055507f520c657c7cd4b2f463777288d69693f23b30c6edcf209b5a26a68b359bfb824c60025460016000600254815260200190815260200160002060030160149054906101000a900460ff166006811115610dd557610dd46116ba565b5b604051610de39291906118df565b60405180910390a17f520c657c7cd4b2f463777288d69693f23b30c6edcf209b5a26a68b359bfb824c60025460016000600254815260200190815260200160002060030160159054906101000a900460ff166001811115610e4757610e466116ba565b5b604051610e559291906118df565b60405180910390a160026000815480929190610e7090611e7d565b919050555050505050565b60008060009054906101000a900473ffffffffffffffffffffffffffffffffffffffff1673ffffffffffffffffffffffffffffffffffffffff163373ffffffffffffffffffffffffffffffffffffffff1614905090565b3373ffffffffffffffffffffffffffffffffffffffff166001600083815260200190815260200160002060030160009054906101000a900473ffffffffffffffffffffffffffffffffffffffff1673ffffffffffffffffffffffffffffffffffffffff1614610f76576040517f08c379a0000000000000000000000000000000000000000000000000000000008152600401610f6d906118bf565b60405180910390fd5b60016006811115610f8a57610f896116ba565b5b6001600083815260200190815260200160002060030160149054906101000a900460ff166006811115610fc057610fbf6116ba565b5b14611000576040517f08c379a0000000000000000000000000000000000000000000000000000000008152600401610ff790611f11565b60405180910390fd5b60026001600083815260200190815260200160002060030160146101000a81548160ff0219169083600681111561103a576110396116ba565b5b02179055507f520c657c7cd4b2f463777288d69693f23b30c6edcf209b5a26a68b359bfb824c816001600084815260200190815260200160002060030160149054906101000a900460ff166006811115611097576110966116ba565b5b6040516110a59291906118df565b60405180910390a150565b60016020528060005260406000206000915090508060000180546110d390611b9f565b80601f01602080910402602001604051908101604052809291908181526020018280546110ff90611b9f565b801561114c5780601f106111215761010080835404028352916020019161114c565b820191906000526020600020905b81548152906001019060200180831161112f57829003601f168201915b5050505050908060010154908060020154908060030160009054906101000a900473ffffffffffffffffffffffffffffffffffffffff16908060030160149054906101000a900460ff16908060030160159054906101000a900460ff16905086565b6111b6610e7b565b6111f5576040517f08c379a00000000000000000000000000000000000000000000000000000000081526004016111ec90611954565b60405180910390fd5b60006006811115611209576112086116ba565b5b6001600083815260200190815260200160002060030160149054906101000a900460ff16600681111561123f5761123e6116ba565b5b1461127f576040517f08c379a000000000000000000000000000000000000000000000000000000000815260040161127690611fa3565b60405180910390fd5b600180600083815260200190815260200160002060030160146101000a81548160ff021916908360068111156112b8576112b76116ba565b5b02179055507f520c657c7cd4b2f463777288d69693f23b30c6edcf209b5a26a68b359bfb824c816001600084815260200190815260200160002060030160149054906101000a900460ff166006811115611315576113146116ba565b5b6040516113239291906118df565b60405180910390a150565b6000604051905090565b600080fd5b600080fd5b6000819050919050565b61135581611342565b811461136057600080fd5b50565b6000813590506113728161134c565b92915050565b60006020828403121561138e5761138d611338565b5b600061139c84828501611363565b91505092915050565b6113ae81611342565b82525050565b60006020820190506113c960008301846113a5565b92915050565b600080fd5b600080fd5b6000601f19601f8301169050919050565b7f4e487b7100000000000000000000000000000000000000000000000000000000600052604160045260246000fd5b611422826113d9565b810181811067ffffffffffffffff82111715611441576114406113ea565b5b80604052505050565b600061145461132e565b90506114608282611419565b919050565b600067ffffffffffffffff8211156114805761147f6113ea565b5b611489826113d9565b9050602081019050919050565b82818337600083830152505050565b60006114b86114b384611465565b61144a565b9050828152602081018484840111156114d4576114d36113d4565b5b6114df848285611496565b509392505050565b600082601f8301126114fc576114fb6113cf565b5b813561150c8482602086016114a5565b91505092915050565b600073ffffffffffffffffffffffffffffffffffffffff82169050919050565b600061154082611515565b9050919050565b61155081611535565b811461155b57600080fd5b50565b60008135905061156d81611547565b92915050565b6000806000806080858703121561158d5761158c611338565b5b600085013567ffffffffffffffff8111156115ab576115aa61133d565b5b6115b7878288016114e7565b94505060206115c887828801611363565b93505060406115d987828801611363565b92505060606115ea8782880161155e565b91505092959194509250565b60008115159050919050565b61160b816115f6565b82525050565b60006020820190506116266000830184611602565b92915050565b600081519050919050565b600082825260208201905092915050565b60005b8381101561166657808201518184015260208101905061164b565b60008484015250505050565b600061167d8261162c565b6116878185611637565b9350611697818560208601611648565b6116a0816113d9565b840191505092915050565b6116b481611535565b82525050565b7f4e487b7100000000000000000000000000000000000000000000000000000000600052602160045260246000fd5b600781106116fa576116f96116ba565b5b50565b600081905061170b826116e9565b919050565b600061171b826116fd565b9050919050565b61172b81611710565b82525050565b60028110611742576117416116ba565b5b50565b600081905061175382611731565b919050565b600061176382611745565b9050919050565b61177381611758565b82525050565b600060c08201905081810360008301526117938189611672565b90506117a260208301886113a5565b6117af60408301876113a5565b6117bc60608301866116ab565b6117c96080830185611722565b6117d660a083018461176a565b979650505050505050565b7f546865206974656d206d7573742062652064656c69766572656420746f20657660008201527f616c756174650000000000000000000000000000000000000000000000000000602082015250565b600061183d602683611637565b9150611848826117e1565b604082019050919050565b6000602082019050818103600083015261186c81611830565b9050919050565b7f596f7520617265206e6f742074686520637573746f6d65722100000000000000600082015250565b60006118a9601983611637565b91506118b482611873565b602082019050919050565b600060208201905081810360008301526118d88161189c565b9050919050565b60006040820190506118f460008301856113a5565b61190160208301846113a5565b9392505050565b7f596f7520617265206e6f7420746865206f776e65720000000000000000000000600082015250565b600061193e601583611637565b915061194982611908565b602082019050919050565b6000602082019050818103600083015261196d81611931565b9050919050565b7f56696f6c6174696f6e2063616e6e6f742068617070656e206f7574736964652060008201527f74686520496e5472616e73697420737461746521000000000000000000000000602082015250565b60006119d0603483611637565b91506119db82611974565b604082019050919050565b600060208201905081810360008301526119ff816119c3565b9050919050565b7f50726f64756374206d757374206265206e6f6e2d636f6d706c69616e7420666f60008201527f72206e65676f63696174696f6e21000000000000000000000000000000000000602082015250565b6000611a62602e83611637565b9150611a6d82611a06565b604082019050919050565b60006020820190508181036000830152611a9181611a55565b9050919050565b7f4e6f6e20636f6d706c69616e7420666f72207061796d656e7421000000000000600082015250565b6000611ace601a83611637565b9150611ad982611a98565b602082019050919050565b60006020820190508181036000830152611afd81611ac1565b9050919050565b7f4f6e6c792066756c6c207061796d656e74732100000000000000000000000000600082015250565b6000611b3a601383611637565b9150611b4582611b04565b602082019050919050565b60006020820190508181036000830152611b6981611b2d565b9050919050565b7f4e487b7100000000000000000000000000000000000000000000000000000000600052602260045260246000fd5b60006002820490506001821680611bb757607f821691505b602082108103611bca57611bc9611b70565b5b50919050565b60008190508160005260206000209050919050565b60006020601f8301049050919050565b600082821b905092915050565b600060088302611c327fffffffffffffffffffffffffffffffffffffffffffffffffffffffffffffffff82611bf5565b611c3c8683611bf5565b95508019841693508086168417925050509392505050565b6000819050919050565b6000611c79611c74611c6f84611342565b611c54565b611342565b9050919050565b6000819050919050565b611c9383611c5e565b611ca7611c9f82611c80565b848454611c02565b825550505050565b600090565b611cbc611caf565b611cc7818484611c8a565b505050565b5b81811015611ceb57611ce0600082611cb4565b600181019050611ccd565b5050565b601f821115611d3057611d0181611bd0565b611d0a84611be5565b81016020851015611d19578190505b611d2d611d2585611be5565b830182611ccc565b50505b505050565b600082821c905092915050565b6000611d5360001984600802611d35565b1980831691505092915050565b6000611d6c8383611d42565b9150826002028217905092915050565b611d858261162c565b67ffffffffffffffff811115611d9e57611d9d6113ea565b5b611da88254611b9f565b611db3828285611cef565b600060209050601f831160018114611de65760008415611dd4578287015190505b611dde8582611d60565b865550611e46565b601f198416611df486611bd0565b60005b82811015611e1c57848901518255600182019150602085019450602081019050611df7565b86831015611e395784890151611e35601f891682611d42565b8355505b6001600288020188555050505b505050505050565b7f4e487b7100000000000000000000000000000000000000000000000000000000600052601160045260246000fd5b6000611e8882611342565b91507fffffffffffffffffffffffffffffffffffffffffffffffffffffffffffffffff8203611eba57611eb9611e4e565b5b600182019050919050565b7f546865206974656d206d75737420626520696e207472616e7369740000000000600082015250565b6000611efb601b83611637565b9150611f0682611ec5565b602082019050919050565b60006020820190508181036000830152611f2a81611eee565b9050919050565b7f43616e6e6f7420747269676765722064656c69766572792c20636f6e7461696e60008201527f6572206675727468657220696e2074686520636861696e2e0000000000000000602082015250565b6000611f8d603883611637565b9150611f9882611f31565b604082019050919050565b60006020820190508181036000830152611fbc81611f80565b905091905056fea264697066735822122005f5a22db85153ad652f28df5887f334861d08af21bd4d6c6d3a9ab683dd0e9164736f6c63430008110033",
  "linkReferences": {},
  "deployedLinkReferences": {}
}